{
  "address": "0xF1a2D02114Ea3F9fF1C25d491BDDC2Ba0554B220",
  "abi": [
    {
      "inputs": [],
      "name": "QuoteNotFound",
      "type": "error"
    },
    {
      "anonymous": false,
      "inputs": [
        {
          "indexed": false,
          "internalType": "string",
          "name": "username",
          "type": "string"
        },
        {
          "indexed": false,
          "internalType": "string",
          "name": "content",
          "type": "string"
        }
      ],
      "name": "QuoteDapp__AddNewQuote",
      "type": "event"
    },
    {
      "inputs": [
        {
          "internalType": "string",
          "name": "_username",
          "type": "string"
        },
        {
          "internalType": "string",
          "name": "_content",
          "type": "string"
        }
      ],
      "name": "addQuote",
      "outputs": [],
      "stateMutability": "nonpayable",
      "type": "function"
    },
    {
      "inputs": [
        {
          "internalType": "uint256",
          "name": "_index",
          "type": "uint256"
        }
      ],
      "name": "getQuote",
      "outputs": [
        {
          "internalType": "string",
          "name": "",
          "type": "string"
        },
        {
          "internalType": "string",
          "name": "",
          "type": "string"
        }
      ],
      "stateMutability": "view",
      "type": "function"
    },
    {
      "inputs": [],
      "name": "getQuoteCount",
      "outputs": [
        {
          "internalType": "uint256",
          "name": "",
          "type": "uint256"
        }
      ],
      "stateMutability": "view",
      "type": "function"
    },
    {
      "inputs": [
        {
          "internalType": "uint256",
          "name": "",
          "type": "uint256"
        }
      ],
      "name": "quotes",
      "outputs": [
        {
          "internalType": "string",
          "name": "username",
          "type": "string"
        },
        {
          "internalType": "string",
          "name": "content",
          "type": "string"
        }
      ],
      "stateMutability": "view",
      "type": "function"
    }
  ],
  "transactionHash": "0xe8431962f6fddf2b24f6a322b2a11bd7179a79c9b62967849f378279ef16a610",
  "args": [],
  "numDeployments": 1,
  "solcInputHash": "f69b73c37a269cfa374e1ac9a3015c46",
  "bytecode": "0x608060405234801561001057600080fd5b50610ad1806100206000396000f3fe608060405234801561001057600080fd5b506004361061004c5760003560e01c80630cf416f414610051578063a61cf0d41461006f578063cf39918e146100a0578063e217ff25146100d1575b600080fd5b6100596100ed565b6040516100669190610492565b60405180910390f35b610089600480360381019061008491906104ed565b6100f9565b6040516100979291906105aa565b60405180910390f35b6100ba60048036038101906100b591906104ed565b61023d565b6040516100c89291906105aa565b60405180910390f35b6100eb60048036038101906100e69190610716565b6103ce565b005b60008080549050905090565b6000818154811061010957600080fd5b906000526020600020906002020160009150905080600001805461012c906107bd565b80601f0160208091040260200160405190810160405280929190818152602001828054610158906107bd565b80156101a55780601f1061017a576101008083540402835291602001916101a5565b820191906000526020600020905b81548152906001019060200180831161018857829003601f168201915b5050505050908060010180546101ba906107bd565b80601f01602080910402602001604051908101604052809291908181526020018280546101e6906107bd565b80156102335780601f1061020857610100808354040283529160200191610233565b820191906000526020600020905b81548152906001019060200180831161021657829003601f168201915b5050505050905082565b60608060008054905083111561027f576040517fcf533f4900000000000000000000000000000000000000000000000000000000815260040160405180910390fd5b6000808481548110610294576102936107ee565b5b9060005260206000209060020201905080600001816001018180546102b8906107bd565b80601f01602080910402602001604051908101604052809291908181526020018280546102e4906107bd565b80156103315780601f1061030657610100808354040283529160200191610331565b820191906000526020600020905b81548152906001019060200180831161031457829003601f168201915b50505050509150808054610344906107bd565b80601f0160208091040260200160405190810160405280929190818152602001828054610370906107bd565b80156103bd5780601f10610392576101008083540402835291602001916103bd565b820191906000526020600020905b8154815290600101906020018083116103a057829003601f168201915b505050505090509250925050915091565b60006040518060400160405280848152602001838152509080600181540180825580915050600190039060005260206000209060020201600090919091909150600082015181600001908161042391906109c9565b50602082015181600101908161043991906109c9565b5050507fd786e75f1d50676c5d02fa7c79ed5580c3cdaf7d0de9228d9980bd508d3d9e1f828260405161046d9291906105aa565b60405180910390a15050565b6000819050919050565b61048c81610479565b82525050565b60006020820190506104a76000830184610483565b92915050565b6000604051905090565b600080fd5b600080fd5b6104ca81610479565b81146104d557600080fd5b50565b6000813590506104e7816104c1565b92915050565b600060208284031215610503576105026104b7565b5b6000610511848285016104d8565b91505092915050565b600081519050919050565b600082825260208201905092915050565b60005b83811015610554578082015181840152602081019050610539565b60008484015250505050565b6000601f19601f8301169050919050565b600061057c8261051a565b6105868185610525565b9350610596818560208601610536565b61059f81610560565b840191505092915050565b600060408201905081810360008301526105c48185610571565b905081810360208301526105d88184610571565b90509392505050565b600080fd5b600080fd5b7f4e487b7100000000000000000000000000000000000000000000000000000000600052604160045260246000fd5b61062382610560565b810181811067ffffffffffffffff82111715610642576106416105eb565b5b80604052505050565b60006106556104ad565b9050610661828261061a565b919050565b600067ffffffffffffffff821115610681576106806105eb565b5b61068a82610560565b9050602081019050919050565b82818337600083830152505050565b60006106b96106b484610666565b61064b565b9050828152602081018484840111156106d5576106d46105e6565b5b6106e0848285610697565b509392505050565b600082601f8301126106fd576106fc6105e1565b5b813561070d8482602086016106a6565b91505092915050565b6000806040838503121561072d5761072c6104b7565b5b600083013567ffffffffffffffff81111561074b5761074a6104bc565b5b610757858286016106e8565b925050602083013567ffffffffffffffff811115610778576107776104bc565b5b610784858286016106e8565b9150509250929050565b7f4e487b7100000000000000000000000000000000000000000000000000000000600052602260045260246000fd5b600060028204905060018216806107d557607f821691505b6020821081036107e8576107e761078e565b5b50919050565b7f4e487b7100000000000000000000000000000000000000000000000000000000600052603260045260246000fd5b60008190508160005260206000209050919050565b60006020601f8301049050919050565b600082821b905092915050565b60006008830261087f7fffffffffffffffffffffffffffffffffffffffffffffffffffffffffffffffff82610842565b6108898683610842565b95508019841693508086168417925050509392505050565b6000819050919050565b60006108c66108c16108bc84610479565b6108a1565b610479565b9050919050565b6000819050919050565b6108e0836108ab565b6108f46108ec826108cd565b84845461084f565b825550505050565b600090565b6109096108fc565b6109148184846108d7565b505050565b5b818110156109385761092d600082610901565b60018101905061091a565b5050565b601f82111561097d5761094e8161081d565b61095784610832565b81016020851015610966578190505b61097a61097285610832565b830182610919565b50505b505050565b600082821c905092915050565b60006109a060001984600802610982565b1980831691505092915050565b60006109b9838361098f565b9150826002028217905092915050565b6109d28261051a565b67ffffffffffffffff8111156109eb576109ea6105eb565b5b6109f582546107bd565b610a0082828561093c565b600060209050601f831160018114610a335760008415610a21578287015190505b610a2b85826109ad565b865550610a93565b601f198416610a418661081d565b60005b82811015610a6957848901518255600182019150602085019450602081019050610a44565b86831015610a865784890151610a82601f89168261098f565b8355505b6001600288020188555050505b50505050505056fea26469706673582212205e445c3218d0a528304bdc906732a258394c1923fa4b7467304f3e7dae8d3ad764736f6c63430008180033",
  "devdoc": {
    "kind": "dev",
    "methods": {},
    "version": 1
  },
  "userdoc": {
    "kind": "user",
    "methods": {},
    "version": 1
  },
  "storageLayout": {
    "storage": [
      {
        "astId": 18,
        "contract": "contracts/QuoteDapp.sol:QuoteDapp",
        "label": "quotes",
        "offset": 0,
        "slot": "0",
        "type": "t_array(t_struct(Quote)14_storage)dyn_storage"
      }
    ],
    "types": {
      "t_array(t_struct(Quote)14_storage)dyn_storage": {
        "base": "t_struct(Quote)14_storage",
        "encoding": "dynamic_array",
        "label": "struct QuoteDapp.Quote[]",
        "numberOfBytes": "32"
      },
      "t_string_storage": {
        "encoding": "bytes",
        "label": "string",
        "numberOfBytes": "32"
      },
      "t_struct(Quote)14_storage": {
        "encoding": "inplace",
        "label": "struct QuoteDapp.Quote",
        "members": [
          {
            "astId": 11,
            "contract": "contracts/QuoteDapp.sol:QuoteDapp",
            "label": "username",
            "offset": 0,
            "slot": "0",
            "type": "t_string_storage"
          },
          {
            "astId": 13,
            "contract": "contracts/QuoteDapp.sol:QuoteDapp",
            "label": "content",
            "offset": 0,
            "slot": "1",
            "type": "t_string_storage"
          }
        ],
        "numberOfBytes": "64"
      }
    }
  }
}