{
  "_format": "hh-sol-artifact-1",
  "contractName": "QuoteDapp",
  "sourceName": "contracts/QuoteDapp.sol",
  "abi": [
    {
      "inputs": [],
      "name": "QuoteNotFound",
      "type": "error"
    },
    {
      "anonymous": false,
      "inputs": [
        {
          "indexed": false,
          "internalType": "string",
          "name": "username",
          "type": "string"
        },
        {
          "indexed": false,
          "internalType": "string",
          "name": "content",
          "type": "string"
        }
      ],
      "name": "QuoteDapp__AddNewQuote",
      "type": "event"
    },
    {
      "inputs": [
        {
          "internalType": "string",
          "name": "_username",
          "type": "string"
        },
        {
          "internalType": "string",
          "name": "_content",
          "type": "string"
        }
      ],
      "name": "addQuote",
      "outputs": [],
      "stateMutability": "nonpayable",
      "type": "function"
    },
    {
      "inputs": [
        {
          "internalType": "uint256",
          "name": "_index",
          "type": "uint256"
        }
      ],
      "name": "getQuote",
      "outputs": [
        {
          "internalType": "string",
          "name": "",
          "type": "string"
        },
        {
          "internalType": "string",
          "name": "",
          "type": "string"
        }
      ],
      "stateMutability": "view",
      "type": "function"
    },
    {
      "inputs": [],
      "name": "getQuoteCount",
      "outputs": [
        {
          "internalType": "uint256",
          "name": "",
          "type": "uint256"
        }
      ],
      "stateMutability": "view",
      "type": "function"
    },
    {
      "inputs": [
        {
          "internalType": "uint256",
          "name": "",
          "type": "uint256"
        }
      ],
      "name": "quotes",
      "outputs": [
        {
          "internalType": "string",
          "name": "username",
          "type": "string"
        },
        {
          "internalType": "string",
          "name": "content",
          "type": "string"
        }
      ],
      "stateMutability": "view",
      "type": "function"
    }
  ],
  "bytecode": "0x608060405234801561001057600080fd5b50610c3d806100206000396000f3fe608060405234801561001057600080fd5b506004361061004c5760003560e01c80630cf416f414610051578063a61cf0d41461006f578063cf39918e146100a0578063e217ff25146100d1575b600080fd5b6100596100ed565b60405161006691906105fe565b60405180910390f35b61008960048036038101906100849190610659565b610136565b604051610097929190610716565b60405180910390f35b6100ba60048036038101906100b59190610659565b61027a565b6040516100c8929190610716565b60405180910390f35b6100eb60048036038101906100e69190610882565b6104d3565b005b600061010367c9cbc7edd87c6bb860c01b6105e2565b610117677e51f63b66c3ac6c60c01b6105e2565b61012b67ad94ba006096a66c60c01b6105e2565b600080549050905090565b6000818154811061014657600080fd5b906000526020600020906002020160009150905080600001805461016990610929565b80601f016020809104026020016040519081016040528092919081815260200182805461019590610929565b80156101e25780601f106101b7576101008083540402835291602001916101e2565b820191906000526020600020905b8154815290600101906020018083116101c557829003601f168201915b5050505050908060010180546101f790610929565b80601f016020809104026020016040519081016040528092919081815260200182805461022390610929565b80156102705780601f1061024557610100808354040283529160200191610270565b820191906000526020600020905b81548152906001019060200180831161025357829003601f168201915b5050505050905082565b60608061029167d9c7ef294d50d2e760c01b6105e2565b6102a5674694fefc7e7cda5a60c01b6105e2565b6102b967ca0e5e60e43f0e3660c01b6105e2565b600080549050831115610320576102da67ac3b2db5e934036f60c01b6105e2565b6102ee67afb0d1a1fc6abf8460c01b6105e2565b6040517fcf533f4900000000000000000000000000000000000000000000000000000000815260040160405180910390fd5b61033467c005dbd399a5d51760c01b6105e2565b61034867ab7df1850804088d60c01b6105e2565b61035c6752a6c9fc681f031a60c01b6105e2565b60008084815481106103715761037061095a565b5b9060005260206000209060020201905061039567e1c8ceb658a69da660c01b6105e2565b6103a967fd367ecd0351cb2560c01b6105e2565b80600001816001018180546103bd90610929565b80601f01602080910402602001604051908101604052809291908181526020018280546103e990610929565b80156104365780601f1061040b57610100808354040283529160200191610436565b820191906000526020600020905b81548152906001019060200180831161041957829003601f168201915b5050505050915080805461044990610929565b80601f016020809104026020016040519081016040528092919081815260200182805461047590610929565b80156104c25780601f10610497576101008083540402835291602001916104c2565b820191906000526020600020905b8154815290600101906020018083116104a557829003601f168201915b505050505090509250925050915091565b6104e767669fd2da517d666b60c01b6105e2565b6104fb67505a959b53774e0d60c01b6105e2565b61050f675e6517d582f9239760c01b6105e2565b6000604051806040016040528084815260200183815250908060018154018082558091505060019003906000526020600020906002020160009091909190915060008201518160000190816105649190610b35565b50602082015181600101908161057a9190610b35565b505050610591679a79ce03639032da60c01b6105e2565b6105a567df2eed55abee06fe60c01b6105e2565b7fd786e75f1d50676c5d02fa7c79ed5580c3cdaf7d0de9228d9980bd508d3d9e1f82826040516105d6929190610716565b60405180910390a15050565b50565b6000819050919050565b6105f8816105e5565b82525050565b600060208201905061061360008301846105ef565b92915050565b6000604051905090565b600080fd5b600080fd5b610636816105e5565b811461064157600080fd5b50565b6000813590506106538161062d565b92915050565b60006020828403121561066f5761066e610623565b5b600061067d84828501610644565b91505092915050565b600081519050919050565b600082825260208201905092915050565b60005b838110156106c05780820151818401526020810190506106a5565b60008484015250505050565b6000601f19601f8301169050919050565b60006106e882610686565b6106f28185610691565b93506107028185602086016106a2565b61070b816106cc565b840191505092915050565b6000604082019050818103600083015261073081856106dd565b9050818103602083015261074481846106dd565b90509392505050565b600080fd5b600080fd5b7f4e487b7100000000000000000000000000000000000000000000000000000000600052604160045260246000fd5b61078f826106cc565b810181811067ffffffffffffffff821117156107ae576107ad610757565b5b80604052505050565b60006107c1610619565b90506107cd8282610786565b919050565b600067ffffffffffffffff8211156107ed576107ec610757565b5b6107f6826106cc565b9050602081019050919050565b82818337600083830152505050565b6000610825610820846107d2565b6107b7565b90508281526020810184848401111561084157610840610752565b5b61084c848285610803565b509392505050565b600082601f8301126108695761086861074d565b5b8135610879848260208601610812565b91505092915050565b6000806040838503121561089957610898610623565b5b600083013567ffffffffffffffff8111156108b7576108b6610628565b5b6108c385828601610854565b925050602083013567ffffffffffffffff8111156108e4576108e3610628565b5b6108f085828601610854565b9150509250929050565b7f4e487b7100000000000000000000000000000000000000000000000000000000600052602260045260246000fd5b6000600282049050600182168061094157607f821691505b602082108103610954576109536108fa565b5b50919050565b7f4e487b7100000000000000000000000000000000000000000000000000000000600052603260045260246000fd5b60008190508160005260206000209050919050565b60006020601f8301049050919050565b600082821b905092915050565b6000600883026109eb7fffffffffffffffffffffffffffffffffffffffffffffffffffffffffffffffff826109ae565b6109f586836109ae565b95508019841693508086168417925050509392505050565b6000819050919050565b6000610a32610a2d610a28846105e5565b610a0d565b6105e5565b9050919050565b6000819050919050565b610a4c83610a17565b610a60610a5882610a39565b8484546109bb565b825550505050565b600090565b610a75610a68565b610a80818484610a43565b505050565b5b81811015610aa457610a99600082610a6d565b600181019050610a86565b5050565b601f821115610ae957610aba81610989565b610ac38461099e565b81016020851015610ad2578190505b610ae6610ade8561099e565b830182610a85565b50505b505050565b600082821c905092915050565b6000610b0c60001984600802610aee565b1980831691505092915050565b6000610b258383610afb565b9150826002028217905092915050565b610b3e82610686565b67ffffffffffffffff811115610b5757610b56610757565b5b610b618254610929565b610b6c828285610aa8565b600060209050601f831160018114610b9f5760008415610b8d578287015190505b610b978582610b19565b865550610bff565b601f198416610bad86610989565b60005b82811015610bd557848901518255600182019150602085019450602081019050610bb0565b86831015610bf25784890151610bee601f891682610afb565b8355505b6001600288020188555050505b50505050505056fea264697066735822122071dcec8fc5111eb61bb018e63f1253bd10f0b76e058a6ff857804c803a7ce07d64736f6c63430008180033",
  "linkReferences": {},
  "deployedLinkReferences": {}
}